{
  "contractName": "WordsList",
  "abi": [
    {
      "constant": true,
      "inputs": [
        {
          "name": "",
          "type": "uint256"
        }
      ],
      "name": "words",
      "outputs": [
        {
          "name": "word",
          "type": "string"
        },
        {
          "name": "date",
          "type": "uint256"
        }
      ],
      "payable": false,
      "stateMutability": "view",
      "type": "function",
      "signature": "0x884fc838"
    },
    {
      "constant": true,
      "inputs": [],
      "name": "countWords",
      "outputs": [
        {
          "name": "",
          "type": "uint256"
        }
      ],
      "payable": false,
      "stateMutability": "view",
      "type": "function",
      "signature": "0xd4d33a6f"
    },
    {
      "anonymous": false,
      "inputs": [
        {
          "indexed": false,
          "name": "id",
          "type": "uint256"
        },
        {
          "indexed": false,
          "name": "word",
          "type": "string"
        },
        {
          "indexed": false,
          "name": "date",
          "type": "uint256"
        },
        {
          "indexed": false,
          "name": "length",
          "type": "uint256"
        }
      ],
      "name": "WordCreated",
      "type": "event",
      "signature": "0x098cd11efdcf28811bcd68e9834942141c1a6378faca4ce601efc6065f67a14f"
    },
    {
      "constant": false,
      "inputs": [
        {
          "name": "_word",
          "type": "string"
        }
      ],
      "name": "createWord",
      "outputs": [],
      "payable": false,
      "stateMutability": "nonpayable",
      "type": "function",
      "signature": "0x017f7223"
    },
    {
      "constant": true,
      "inputs": [
        {
          "name": "_key",
          "type": "string"
        }
      ],
      "name": "contains",
      "outputs": [
        {
          "name": "",
          "type": "uint256"
        }
      ],
      "payable": false,
      "stateMutability": "view",
      "type": "function",
      "signature": "0x6833d54f"
    },
    {
      "constant": true,
      "inputs": [
        {
          "name": "_key",
          "type": "string"
        }
      ],
      "name": "getByDate",
      "outputs": [
        {
          "name": "",
          "type": "uint256"
        }
      ],
      "payable": false,
      "stateMutability": "view",
      "type": "function",
      "signature": "0xa8ac891b"
    }
  ],
  "bytecode": "0x60806040526000805534801561001457600080fd5b5061086e806100246000396000f3fe60806040526004361061006d576000357c0100000000000000000000000000000000000000000000000000000000900463ffffffff168063017f7223146100725780636833d54f1461013a578063884fc83814610216578063a8ac891b146102d1578063d4d33a6f146103ad575b600080fd5b34801561007e57600080fd5b506101386004803603602081101561009557600080fd5b81019080803590602001906401000000008111156100b257600080fd5b8201836020820111156100c457600080fd5b803590602001918460018302840111640100000000831117156100e657600080fd5b91908080601f016020809104026020016040519081016040528093929190818152602001838380828437600081840152601f19601f8201169050808301925050505050505091929192905050506103d8565b005b34801561014657600080fd5b506102006004803603602081101561015d57600080fd5b810190808035906020019064010000000081111561017a57600080fd5b82018360208201111561018c57600080fd5b803590602001918460018302840111640100000000831117156101ae57600080fd5b91908080601f016020809104026020016040519081016040528093929190818152602001838380828437600081840152601f19601f820116905080830192505050505050509192919290505050610597565b6040518082815260200191505060405180910390f35b34801561022257600080fd5b5061024f6004803603602081101561023957600080fd5b8101908080359060200190929190505050610636565b6040518080602001838152602001828103825284818151815260200191508051906020019080838360005b8381101561029557808201518184015260208101905061027a565b50505050905090810190601f1680156102c25780820380516001836020036101000a031916815260200191505b50935050505060405180910390f35b3480156102dd57600080fd5b50610397600480360360208110156102f457600080fd5b810190808035906020019064010000000081111561031157600080fd5b82018360208201111561032357600080fd5b8035906020019184600183028401116401000000008311171561034557600080fd5b91908080601f016020809104026020016040519081016040528093929190818152602001838380828437600081840152601f19601f8201169050808301925050505050505091929192905050506106f2565b6040518082815260200191505060405180910390f35b3480156103b957600080fd5b506103c261077d565b6040518082815260200191505060405180910390f35b60006103e382610597565b1480156103f1575060008151115b15610594576103fe610783565b60408051908101604052808381526020014281525090506000808154809291906001019190505550806001600080548152602001908152602001600020600082015181600001908051906020019061045792919061079d565b50602082015181600101559050506000546002836040518082805190602001908083835b6020831015156104a0578051825260208201915060208101905060208303925061047b565b6001836020036101000a0380198251168184511680821785525050505050509050019150509081526020016040518091039020819055507f098cd11efdcf28811bcd68e9834942141c1a6378faca4ce601efc6065f67a14f60005483836020015185516040518085815260200180602001848152602001838152602001828103825285818151815260200191508051906020019080838360005b8381101561055557808201518184015260208101905061053a565b50505050905090810190601f1680156105825780820380516001836020036101000a031916815260200191505b509550505050505060405180910390a1505b50565b6000600160006002846040518082805190602001908083835b6020831015156105d557805182526020820191506020810190506020830392506105b0565b6001836020036101000a03801982511681845116808217855250505050505090500191505090815260200160405180910390205481526020019081526020016000206000018054600181600116156101000203166002900490509050919050565b6001602052806000526040600020600091509050806000018054600181600116156101000203166002900480601f0160208091040260200160405190810160405280929190818152602001828054600181600116156101000203166002900480156106e25780601f106106b7576101008083540402835291602001916106e2565b820191906000526020600020905b8154815290600101906020018083116106c557829003601f168201915b5050505050908060010154905082565b6000600160006002846040518082805190602001908083835b602083101515610730578051825260208201915060208101905060208303925061070b565b6001836020036101000a0380198251168184511680821785525050505050509050019150509081526020016040518091039020548152602001908152602001600020600101549050919050565b60005481565b604080519081016040528060608152602001600081525090565b828054600181600116156101000203166002900490600052602060002090601f016020900481019282601f106107de57805160ff191683800117855561080c565b8280016001018555821561080c579182015b8281111561080b5782518255916020019190600101906107f0565b5b509050610819919061081d565b5090565b61083f91905b8082111561083b576000816000905550600101610823565b5090565b9056fea165627a7a723058208fb2bedd2d5c670953a3c3e47cf9e275ec5e2ee1edc3ac2315a1d368d5ebab740029",
  "source": "pragma solidity ^0.5.0;\n\ncontract WordsList {\n\n\tstruct Word {\n\t\tstring word;\n\t\tuint256 date;\n\t}\n\n\tuint public countWords = 0;\n\n    mapping(uint => Word) public words;\n    mapping(string => uint256) getAddressFromWord;\n\n    event WordCreated(\n    \tuint id,\n    \tstring word,\n    \tuint256 date,\n    \tuint256 length\n    );\n\n    function createWord(string memory _word) public {\n    \n\t\tif(contains(_word) == 0 && bytes(_word).length > 0){\n\t\t\tWord memory data = Word(_word, now);\n\t\t\tcountWords++;\n\t\t\twords[countWords] = data;\n\t\t\tgetAddressFromWord[_word] = countWords;\n\t\t\temit WordCreated(countWords, _word, data.date, bytes(_word).length);\n\t\t}\n\n\t}\n\n\tfunction contains(string memory _key) public view returns (uint256) {\n        return bytes(words[getAddressFromWord[_key]].word).length;\n    }\n    \n    function getByDate(string memory _key) public view returns (uint256) {\n        return words[getAddressFromWord[_key]].date;\n\t}\n\n}",
  "sourcePath": "/home/eric/ethereum/contracts/contracts/WordsList.sol",
  "compiler": {
    "name": "solc",
    "version": "0.5.0+commit.1d4f565a.Emscripten.clang"
  },
  "schemaVersion": "3.0.3",
  "updatedAt": "2019-03-19T18:51:52.252Z",
  "devdoc": {
    "methods": {}
  },
  "userdoc": {
    "methods": {}
  }
}